{
  "_format": "hh-sol-artifact-1",
  "contractName": "Contract",
  "sourceName": "contracts/Contract.sol",
  "abi": [
    {
      "inputs": [],
      "stateMutability": "nonpayable",
      "type": "constructor"
    },
    {
      "inputs": [
        {
          "internalType": "string",
          "name": "name",
          "type": "string"
        },
        {
          "internalType": "string",
          "name": "age",
          "type": "string"
        },
        {
          "internalType": "string",
          "name": "from",
          "type": "string"
        },
        {
          "internalType": "string",
          "name": "to",
          "type": "string"
        },
        {
          "internalType": "string",
          "name": "date",
          "type": "string"
        }
      ],
      "name": "addTicket",
      "outputs": [],
      "stateMutability": "nonpayable",
      "type": "function"
    },
    {
      "inputs": [
        {
          "internalType": "address",
          "name": "user",
          "type": "address"
        },
        {
          "internalType": "uint256",
          "name": "index",
          "type": "uint256"
        }
      ],
      "name": "deleteTicket",
      "outputs": [],
      "stateMutability": "nonpayable",
      "type": "function"
    },
    {
      "inputs": [],
      "name": "getTickets",
      "outputs": [
        {
          "components": [
            {
              "internalType": "string",
              "name": "name",
              "type": "string"
            },
            {
              "internalType": "string",
              "name": "age",
              "type": "string"
            },
            {
              "internalType": "string",
              "name": "from",
              "type": "string"
            },
            {
              "internalType": "string",
              "name": "to",
              "type": "string"
            },
            {
              "internalType": "string",
              "name": "date",
              "type": "string"
            },
            {
              "internalType": "bool",
              "name": "isDeleted",
              "type": "bool"
            }
          ],
          "internalType": "struct Contract.ticketData[]",
          "name": "",
          "type": "tuple[]"
        }
      ],
      "stateMutability": "view",
      "type": "function"
    }
  ],
  "bytecode": "0x608060405234801561001057600080fd5b50600280546001600160a01b03191633179055610cba806100326000396000f3fe608060405234801561001057600080fd5b50600436106100415760003560e01c80634ed0262214610046578063d114c8cd14610064578063ed4be5da14610079575b600080fd5b61004e61008c565b60405161005b9190610871565b60405180910390f35b61007761007236600461099e565b6105d7565b005b610077610087366004610a8f565b6107d7565b336000908152600160208190526040822054606092916100ac9190610add565b67ffffffffffffffff8111156100c4576100c4610af6565b60405190808252806020026020018201604052801561013057816020015b61011d6040518060c0016040528060608152602001606081526020016060815260200160608152602001606081526020016000151581525090565b8152602001906001900390816100e25790505b5090506000805b336000908152600160205260409020548110156104ef5733600090815260208190526040902080548290811061016f5761016f610b0c565b600091825260209091206005600690920201015460ff166104dd573360009081526020819052604090208054829081106101ab576101ab610b0c565b90600052602060002090600602016040518060c00160405290816000820180546101d490610b22565b80601f016020809104026020016040519081016040528092919081815260200182805461020090610b22565b801561024d5780601f106102225761010080835404028352916020019161024d565b820191906000526020600020905b81548152906001019060200180831161023057829003601f168201915b5050505050815260200160018201805461026690610b22565b80601f016020809104026020016040519081016040528092919081815260200182805461029290610b22565b80156102df5780601f106102b4576101008083540402835291602001916102df565b820191906000526020600020905b8154815290600101906020018083116102c257829003601f168201915b505050505081526020016002820180546102f890610b22565b80601f016020809104026020016040519081016040528092919081815260200182805461032490610b22565b80156103715780601f1061034657610100808354040283529160200191610371565b820191906000526020600020905b81548152906001019060200180831161035457829003601f168201915b5050505050815260200160038201805461038a90610b22565b80601f01602080910402602001604051908101604052809291908181526020018280546103b690610b22565b80156104035780601f106103d857610100808354040283529160200191610403565b820191906000526020600020905b8154815290600101906020018083116103e657829003601f168201915b5050505050815260200160048201805461041c90610b22565b80601f016020809104026020016040519081016040528092919081815260200182805461044890610b22565b80156104955780601f1061046a57610100808354040283529160200191610495565b820191906000526020600020905b81548152906001019060200180831161047857829003601f168201915b50505091835250506005919091015460ff16151560209091015283518490849081106104c3576104c3610b0c565b602002602001018190525081806104d990610b5c565b9250505b806104e781610b5c565b915050610137565b5060008167ffffffffffffffff81111561050b5761050b610af6565b60405190808252806020026020018201604052801561057757816020015b6105646040518060c0016040528060608152602001606081526020016060815260200160608152602001606081526020016000151581525090565b8152602001906001900390816105295790505b50905060005b828110156105cf5783818151811061059757610597610b0c565b60200260200101518282815181106105b1576105b1610b0c565b602002602001018190525080806105c790610b5c565b91505061057d565b509392505050565b3360009081526020818152604091829020825160e0601f8e018490049093028101830190935260c083018c81529092918291908e908e9081908501838280828437600092019190915250505090825250604080516020601f8d018190048102820181019092528b815291810191908c908c9081908401838280828437600092019190915250505090825250604080516020601f8b0181900481028201810190925289815291810191908a908a9081908401838280828437600092019190915250505090825250604080516020601f890181900481028201810190925287815291810191908890889081908401838280828437600092019190915250505090825250604080516020601f87018190048102820181019092528581529181019190869086908190840183828082843760009201829052509385525050506020918201819052835460018101855593815220815191926006020190819061073b9082610bc4565b50602082015160018201906107509082610bc4565b50604082015160028201906107659082610bc4565b506060820151600382019061077a9082610bc4565b506080820151600482019061078f9082610bc4565b5060a091909101516005909101805460ff19169115159190911790553360009081526001602052604081208054916107c683610b5c565b919050555050505050505050505050565b6001600160a01b03821660009081526020819052604090208054600191908390811061080557610805610b0c565b60009182526020909120600690910201600501805460ff19169115159190911790555050565b6000815180845260005b8181101561085157602081850181015186830182015201610835565b506000602082860101526020601f19601f83011685010191505092915050565b60006020808301818452808551808352604092508286019150828160051b87010184880160005b8381101561094757603f19898403018552815160c081518186526108be8287018261082b565b915050888201518582038a8701526108d6828261082b565b91505087820151858203898701526108ee828261082b565b91505060608083015186830382880152610908838261082b565b9250505060808083015186830382880152610923838261082b565b60a09485015115159790940196909652505094870194925090860190600101610898565b509098975050505050505050565b60008083601f84011261096757600080fd5b50813567ffffffffffffffff81111561097f57600080fd5b60208301915083602082850101111561099757600080fd5b9250929050565b60008060008060008060008060008060a08b8d0312156109bd57600080fd5b8a3567ffffffffffffffff808211156109d557600080fd5b6109e18e838f01610955565b909c509a5060208d01359150808211156109fa57600080fd5b610a068e838f01610955565b909a50985060408d0135915080821115610a1f57600080fd5b610a2b8e838f01610955565b909850965060608d0135915080821115610a4457600080fd5b610a508e838f01610955565b909650945060808d0135915080821115610a6957600080fd5b50610a768d828e01610955565b915080935050809150509295989b9194979a5092959850565b60008060408385031215610aa257600080fd5b82356001600160a01b0381168114610ab957600080fd5b946020939093013593505050565b634e487b7160e01b600052601160045260246000fd5b80820180821115610af057610af0610ac7565b92915050565b634e487b7160e01b600052604160045260246000fd5b634e487b7160e01b600052603260045260246000fd5b600181811c90821680610b3657607f821691505b602082108103610b5657634e487b7160e01b600052602260045260246000fd5b50919050565b600060018201610b6e57610b6e610ac7565b5060010190565b601f821115610bbf57600081815260208120601f850160051c81016020861015610b9c5750805b601f850160051c820191505b81811015610bbb57828155600101610ba8565b5050505b505050565b815167ffffffffffffffff811115610bde57610bde610af6565b610bf281610bec8454610b22565b84610b75565b602080601f831160018114610c275760008415610c0f5750858301515b600019600386901b1c1916600185901b178555610bbb565b600085815260208120601f198616915b82811015610c5657888601518255948401946001909101908401610c37565b5085821015610c745787850151600019600388901b60f8161c191681555b5050505050600190811b0190555056fea26469706673582212200cfb7d58568346ec5ceb5e01552ccf2e403ec9fa0a91e67891f8ec689bd5d73f64736f6c63430008110033",
  "linkReferences": {},
  "deployedLinkReferences": {}
}